{
  "contractName": "U1LTOKEN",
  "abi": [
    {
      "constant": true,
      "inputs": [
        {
          "name": "",
          "type": "uint256"
        }
      ],
      "name": "allTokens",
      "outputs": [
        {
          "name": "ipfsHash",
          "type": "string"
        }
      ],
      "payable": false,
      "stateMutability": "view",
      "type": "function"
    },
    {
      "constant": true,
      "inputs": [
        {
          "name": "",
          "type": "uint256"
        }
      ],
      "name": "allValidTokenIds",
      "outputs": [
        {
          "name": "",
          "type": "uint256"
        }
      ],
      "payable": false,
      "stateMutability": "view",
      "type": "function"
    },
    {
      "constant": true,
      "inputs": [],
      "name": "owner",
      "outputs": [
        {
          "name": "",
          "type": "address"
        }
      ],
      "payable": false,
      "stateMutability": "view",
      "type": "function"
    },
    {
      "inputs": [],
      "payable": false,
      "stateMutability": "nonpayable",
      "type": "constructor"
    },
    {
      "anonymous": false,
      "inputs": [
        {
          "indexed": true,
          "name": "_from",
          "type": "address"
        },
        {
          "indexed": true,
          "name": "_to",
          "type": "address"
        },
        {
          "indexed": true,
          "name": "_tokenId",
          "type": "uint256"
        }
      ],
      "name": "Transfer",
      "type": "event"
    },
    {
      "anonymous": false,
      "inputs": [
        {
          "indexed": true,
          "name": "_owner",
          "type": "address"
        },
        {
          "indexed": true,
          "name": "_approved",
          "type": "address"
        },
        {
          "indexed": true,
          "name": "_tokenId",
          "type": "uint256"
        }
      ],
      "name": "Approval",
      "type": "event"
    },
    {
      "anonymous": false,
      "inputs": [
        {
          "indexed": true,
          "name": "_owner",
          "type": "address"
        },
        {
          "indexed": true,
          "name": "_operator",
          "type": "address"
        },
        {
          "indexed": false,
          "name": "_approved",
          "type": "bool"
        }
      ],
      "name": "ApprovalForAll",
      "type": "event"
    },
    {
      "constant": true,
      "inputs": [],
      "name": "name",
      "outputs": [
        {
          "name": "",
          "type": "string"
        }
      ],
      "payable": false,
      "stateMutability": "view",
      "type": "function"
    },
    {
      "constant": true,
      "inputs": [],
      "name": "symbol",
      "outputs": [
        {
          "name": "",
          "type": "string"
        }
      ],
      "payable": false,
      "stateMutability": "view",
      "type": "function"
    },
    {
      "constant": true,
      "inputs": [
        {
          "name": "interfaceID",
          "type": "bytes4"
        }
      ],
      "name": "supportsInterface",
      "outputs": [
        {
          "name": "",
          "type": "bool"
        }
      ],
      "payable": false,
      "stateMutability": "view",
      "type": "function"
    },
    {
      "constant": true,
      "inputs": [
        {
          "name": "_owner",
          "type": "address"
        }
      ],
      "name": "balanceOf",
      "outputs": [
        {
          "name": "",
          "type": "uint256"
        }
      ],
      "payable": false,
      "stateMutability": "view",
      "type": "function"
    },
    {
      "constant": true,
      "inputs": [
        {
          "name": "_tokenId",
          "type": "uint256"
        }
      ],
      "name": "ownerOf",
      "outputs": [
        {
          "name": "",
          "type": "address"
        }
      ],
      "payable": false,
      "stateMutability": "view",
      "type": "function"
    },
    {
      "constant": false,
      "inputs": [
        {
          "name": "_approved",
          "type": "address"
        },
        {
          "name": "_tokenId",
          "type": "uint256"
        }
      ],
      "name": "approve",
      "outputs": [],
      "payable": true,
      "stateMutability": "payable",
      "type": "function"
    },
    {
      "constant": false,
      "inputs": [
        {
          "name": "_operator",
          "type": "address"
        },
        {
          "name": "_approved",
          "type": "bool"
        }
      ],
      "name": "setApprovalForAll",
      "outputs": [],
      "payable": false,
      "stateMutability": "nonpayable",
      "type": "function"
    },
    {
      "constant": true,
      "inputs": [
        {
          "name": "_tokenId",
          "type": "uint256"
        }
      ],
      "name": "getApproved",
      "outputs": [
        {
          "name": "",
          "type": "address"
        }
      ],
      "payable": false,
      "stateMutability": "view",
      "type": "function"
    },
    {
      "constant": true,
      "inputs": [
        {
          "name": "_owner",
          "type": "address"
        },
        {
          "name": "_operator",
          "type": "address"
        }
      ],
      "name": "isApprovedForAll",
      "outputs": [
        {
          "name": "",
          "type": "bool"
        }
      ],
      "payable": false,
      "stateMutability": "view",
      "type": "function"
    },
    {
      "constant": true,
      "inputs": [
        {
          "name": "_number",
          "type": "uint256"
        }
      ],
      "name": "getAllNFTs",
      "outputs": [
        {
          "name": "",
          "type": "uint256"
        },
        {
          "name": "",
          "type": "string"
        },
        {
          "name": "",
          "type": "address"
        }
      ],
      "payable": false,
      "stateMutability": "view",
      "type": "function"
    },
    {
      "constant": true,
      "inputs": [],
      "name": "getLength",
      "outputs": [
        {
          "name": "",
          "type": "uint256"
        }
      ],
      "payable": false,
      "stateMutability": "view",
      "type": "function"
    },
    {
      "constant": false,
      "inputs": [
        {
          "name": "ipfsHash",
          "type": "string"
        }
      ],
      "name": "mint",
      "outputs": [],
      "payable": false,
      "stateMutability": "nonpayable",
      "type": "function"
    },
    {
      "constant": false,
      "inputs": [
        {
          "name": "_from",
          "type": "address"
        },
        {
          "name": "_to",
          "type": "address"
        },
        {
          "name": "_tokenId",
          "type": "uint256"
        }
      ],
      "name": "transferFrom",
      "outputs": [],
      "payable": true,
      "stateMutability": "payable",
      "type": "function"
    },
    {
      "constant": false,
      "inputs": [
        {
          "name": "_tokenId",
          "type": "uint256"
        }
      ],
      "name": "burn",
      "outputs": [],
      "payable": false,
      "stateMutability": "nonpayable",
      "type": "function"
    },
    {
      "constant": true,
      "inputs": [],
      "name": "baseTokenURI",
      "outputs": [
        {
          "name": "",
          "type": "string"
        }
      ],
      "payable": false,
      "stateMutability": "pure",
      "type": "function"
    },
    {
      "constant": true,
      "inputs": [],
      "name": "totalSupply",
      "outputs": [
        {
          "name": "",
          "type": "uint256"
        }
      ],
      "payable": false,
      "stateMutability": "view",
      "type": "function"
    },
    {
      "constant": true,
      "inputs": [
        {
          "name": "index",
          "type": "uint256"
        }
      ],
      "name": "tokenByIndex",
      "outputs": [
        {
          "name": "",
          "type": "uint256"
        }
      ],
      "payable": false,
      "stateMutability": "view",
      "type": "function"
    },
    {
      "constant": true,
      "inputs": [
        {
          "name": "_tokenId",
          "type": "uint256"
        }
      ],
      "name": "tokenURI",
      "outputs": [
        {
          "name": "",
          "type": "string"
        }
      ],
      "payable": false,
      "stateMutability": "view",
      "type": "function"
    },
    {
      "constant": false,
      "inputs": [],
      "name": "kill",
      "outputs": [],
      "payable": false,
      "stateMutability": "nonpayable",
      "type": "function"
    }
  ],
  "bytecode": "0x608060405233600260006101000a81548173ffffffffffffffffffffffffffffffffffffffff021916908373ffffffffffffffffffffffffffffffffffffffff1602179055503480156200005257600080fd5b506040805190810160405280600981526020017f55314c20544f4b454e000000000000000000000000000000000000000000000081525060009080519060200190620000a092919062000280565b506040805190810160405280600381526020017f55314c000000000000000000000000000000000000000000000000000000000081525060019080519060200190620000ee92919062000280565b5033600260006101000a81548173ffffffffffffffffffffffffffffffffffffffff021916908373ffffffffffffffffffffffffffffffffffffffff1602179055506001600360006301ffc9a77c0100000000000000000000000000000000000000000000000000000000027bffffffffffffffffffffffffffffffffffffffffffffffffffffffff1916815260200190815260200160002060006101000a81548160ff0219169083151502179055506001600360006380ac58cd7c0100000000000000000000000000000000000000000000000000000000027bffffffffffffffffffffffffffffffffffffffffffffffffffffffff1916815260200190815260200160002060006101000a81548160ff021916908315150217905550600160036000635b5e139f7c0100000000000000000000000000000000000000000000000000000000027bffffffffffffffffffffffffffffffffffffffffffffffffffffffff1916815260200190815260200160002060006101000a81548160ff0219169083151502179055506200032f565b828054600181600116156101000203166002900490600052602060002090601f016020900481019282601f10620002c357805160ff1916838001178555620002f4565b82800160010185558215620002f4579182015b82811115620002f3578251825591602001919060010190620002d6565b5b50905062000303919062000307565b5090565b6200032c91905b80821115620003285760008160009055506001016200030e565b5090565b90565b6126cf806200033f6000396000f3fe608060405260043610610128576000357c0100000000000000000000000000000000000000000000000000000000900463ffffffff16806301ffc9a71461012d57806306fdde031461019f578063081812fc1461022f578063095ea7b3146102aa57806318160ddd146102f857806323b872dd1461032357806341c0e1b51461039157806342966c68146103a85780634f6ccce7146103e3578063634282af146104325780636352211e146104e6578063700319c51461056157806370a08231146105b05780638da5cb5b1461061557806395d89b411461066c578063a22cb465146106fc578063be1c766b14610759578063c87b56dd14610784578063d36c8c3d14610838578063d547cfb714610926578063d85d3d27146109b6578063e985e9c514610a3c575b600080fd5b34801561013957600080fd5b506101856004803603602081101561015057600080fd5b8101908080357bffffffffffffffffffffffffffffffffffffffffffffffffffffffff19169060200190929190505050610ac5565b604051808215151515815260200191505060405180910390f35b3480156101ab57600080fd5b506101b4610b2d565b6040518080602001828103825283818151815260200191508051906020019080838360005b838110156101f45780820151818401526020810190506101d9565b50505050905090810190601f1680156102215780820380516001836020036101000a031916815260200191505b509250505060405180910390f35b34801561023b57600080fd5b506102686004803603602081101561025257600080fd5b8101908080359060200190929190505050610bcf565b604051808273ffffffffffffffffffffffffffffffffffffffff1673ffffffffffffffffffffffffffffffffffffffff16815260200191505060405180910390f35b6102f6600480360360408110156102c057600080fd5b81019080803573ffffffffffffffffffffffffffffffffffffffff16906020019092919080359060200190929190505050610c0c565b005b34801561030457600080fd5b5061030d610e05565b6040518082815260200191505060405180910390f35b61038f6004803603606081101561033957600080fd5b81019080803573ffffffffffffffffffffffffffffffffffffffff169060200190929190803573ffffffffffffffffffffffffffffffffffffffff16906020019092919080359060200190929190505050610e12565b005b34801561039d57600080fd5b506103a6611037565b005b3480156103b457600080fd5b506103e1600480360360208110156103cb57600080fd5b810190808035906020019092919050505061115d565b005b3480156103ef57600080fd5b5061041c6004803603602081101561040657600080fd5b8101908080359060200190929190505050611434565b6040518082815260200191505060405180910390f35b34801561043e57600080fd5b5061046b6004803603602081101561045557600080fd5b810190808035906020019092919050505061146c565b6040518080602001828103825283818151815260200191508051906020019080838360005b838110156104ab578082015181840152602081019050610490565b50505050905090810190601f1680156104d85780820380516001836020036101000a031916815260200191505b509250505060405180910390f35b3480156104f257600080fd5b5061051f6004803603602081101561050957600080fd5b810190808035906020019092919050505061152d565b604051808273ffffffffffffffffffffffffffffffffffffffff1673ffffffffffffffffffffffffffffffffffffffff16815260200191505060405180910390f35b34801561056d57600080fd5b5061059a6004803603602081101561058457600080fd5b8101908080359060200190929190505050611614565b6040518082815260200191505060405180910390f35b3480156105bc57600080fd5b506105ff600480360360208110156105d357600080fd5b81019080803573ffffffffffffffffffffffffffffffffffffffff169060200190929190505050611637565b6040518082815260200191505060405180910390f35b34801561062157600080fd5b5061062a6116bb565b604051808273ffffffffffffffffffffffffffffffffffffffff1673ffffffffffffffffffffffffffffffffffffffff16815260200191505060405180910390f35b34801561067857600080fd5b506106816116e1565b6040518080602001828103825283818151815260200191508051906020019080838360005b838110156106c15780820151818401526020810190506106a6565b50505050905090810190601f1680156106ee5780820380516001836020036101000a031916815260200191505b509250505060405180910390f35b34801561070857600080fd5b506107576004803603604081101561071f57600080fd5b81019080803573ffffffffffffffffffffffffffffffffffffffff169060200190929190803515159060200190929190505050611783565b005b34801561076557600080fd5b5061076e611884565b6040518082815260200191505060405180910390f35b34801561079057600080fd5b506107bd600480360360208110156107a757600080fd5b8101908080359060200190929190505050611891565b6040518080602001828103825283818151815260200191508051906020019080838360005b838110156107fd5780820151818401526020810190506107e2565b50505050905090810190601f16801561082a5780820380516001836020036101000a031916815260200191505b509250505060405180910390f35b34801561084457600080fd5b506108716004803603602081101561085b57600080fd5b81019080803590602001909291905050506119d8565b60405180848152602001806020018373ffffffffffffffffffffffffffffffffffffffff1673ffffffffffffffffffffffffffffffffffffffff168152602001828103825284818151815260200191508051906020019080838360005b838110156108e95780820151818401526020810190506108ce565b50505050905090810190601f1680156109165780820380516001836020036101000a031916815260200191505b5094505050505060405180910390f35b34801561093257600080fd5b5061093b611b09565b6040518080602001828103825283818151815260200191508051906020019080838360005b8381101561097b578082015181840152602081019050610960565b50505050905090810190601f1680156109a85780820380516001836020036101000a031916815260200191505b509250505060405180910390f35b3480156109c257600080fd5b50610a3a600480360360208110156109d957600080fd5b81019080803590602001906401000000008111156109f657600080fd5b820183602082011115610a0857600080fd5b80359060200191846001830284011164010000000083111715610a2a57600080fd5b9091929391929390505050611b46565b005b348015610a4857600080fd5b50610aab60048036036040811015610a5f57600080fd5b81019080803573ffffffffffffffffffffffffffffffffffffffff169060200190929190803573ffffffffffffffffffffffffffffffffffffffff169060200190929190505050611ece565b604051808215151515815260200191505060405180910390f35b600060036000837bffffffffffffffffffffffffffffffffffffffffffffffffffffffff19167bffffffffffffffffffffffffffffffffffffffffffffffffffffffff1916815260200190815260200160002060009054906101000a900460ff169050919050565b606060008054600181600116156101000203166002900480601f016020809104026020016040519081016040528092919081815260200182805460018160011615610100020316600290048015610bc55780601f10610b9a57610100808354040283529160200191610bc5565b820191906000526020600020905b815481529060010190602001808311610ba857829003601f168201915b5050505050905090565b60006006600083815260200190815260200160002060009054906101000a900473ffffffffffffffffffffffffffffffffffffffff169050919050565b6000610c178261152d565b90506000600760008373ffffffffffffffffffffffffffffffffffffffff1673ffffffffffffffffffffffffffffffffffffffff16815260200190815260200160002060003373ffffffffffffffffffffffffffffffffffffffff1673ffffffffffffffffffffffffffffffffffffffff16815260200190815260200160002060009054906101000a900460ff1690503373ffffffffffffffffffffffffffffffffffffffff168273ffffffffffffffffffffffffffffffffffffffff161480610cde5750805b1515610d52576040517f08c379a00000000000000000000000000000000000000000000000000000000081526004018080602001828103825260158152602001807f4e6f7420617070726f766564206279206f776e6572000000000000000000000081525060200191505060405180910390fd5b836006600085815260200190815260200160002060006101000a81548173ffffffffffffffffffffffffffffffffffffffff021916908373ffffffffffffffffffffffffffffffffffffffff160217905550828473ffffffffffffffffffffffffffffffffffffffff168373ffffffffffffffffffffffffffffffffffffffff167f8c5be1e5ebec7d5bd14f71427d1e84f3dd0314c0f7b2291e5b200ac8c7c3b92560405160405180910390a450505050565b6000600c80549050905090565b816004600083815260200190815260200160002060006101000a81548173ffffffffffffffffffffffffffffffffffffffff021916908373ffffffffffffffffffffffffffffffffffffffff160217905550610eb76001600560008673ffffffffffffffffffffffffffffffffffffffff1673ffffffffffffffffffffffffffffffffffffffff16815260200190815260200160002054611f6290919063ffffffff16565b600560008573ffffffffffffffffffffffffffffffffffffffff1673ffffffffffffffffffffffffffffffffffffffff16815260200190815260200160002081905550610f4d6001600560008573ffffffffffffffffffffffffffffffffffffffff1673ffffffffffffffffffffffffffffffffffffffff16815260200190815260200160002054611f8490919063ffffffff16565b600560008473ffffffffffffffffffffffffffffffffffffffff1673ffffffffffffffffffffffffffffffffffffffff168152602001908152602001600020819055508273ffffffffffffffffffffffffffffffffffffffff166108fc349081150290604051600060405180830381858888f19350505050158015610fd6573d6000803e3d6000fd5b50808273ffffffffffffffffffffffffffffffffffffffff168473ffffffffffffffffffffffffffffffffffffffff167fddf252ad1be2c89b69c2b068fc378daa952ba7f163c4a11628f55a4df523b3ef60405160405180910390a4505050565b600260009054906101000a900473ffffffffffffffffffffffffffffffffffffffff1673ffffffffffffffffffffffffffffffffffffffff163373ffffffffffffffffffffffffffffffffffffffff16141515611122576040517f08c379a00000000000000000000000000000000000000000000000000000000081526004018080602001828103825260228152602001807f4f6e6c79206f776e65722063616e2063616c6c20746869732066756e6374696f81526020017f6e2e00000000000000000000000000000000000000000000000000000000000081525060400191505060405180910390fd5b600260009054906101000a900473ffffffffffffffffffffffffffffffffffffffff1673ffffffffffffffffffffffffffffffffffffffff16ff5b60008090505b600a805490508110156112eb5781600a8281548110151561118057fe5b90600052602060002090600302016000015414156112de576001600a8054905014156111c157600a8054809190600190036111bb919061240b565b506112dd565b600a805490506001820114156111ec57600a8054809190600190036111e6919061240b565b506112dc565b600a600182018154811015156111fe57fe5b9060005260206000209060030201600a8281548110151561121b57fe5b9060005260206000209060030201600082015481600001556001820181600101908054600181600116156101000203166002900461125a92919061243d565b506002820160009054906101000a900473ffffffffffffffffffffffffffffffffffffffff168160020160006101000a81548173ffffffffffffffffffffffffffffffffffffffff021916908373ffffffffffffffffffffffffffffffffffffffff160217905550905050600a8054809190600190036112da919061240b565b505b5b5b8080600101915050611163565b5060006004600083815260200190815260200160002060006101000a81548173ffffffffffffffffffffffffffffffffffffffff021916908373ffffffffffffffffffffffffffffffffffffffff1602179055506113926001600560003373ffffffffffffffffffffffffffffffffffffffff1673ffffffffffffffffffffffffffffffffffffffff16815260200190815260200160002054611f6290919063ffffffff16565b600560003373ffffffffffffffffffffffffffffffffffffffff1673ffffffffffffffffffffffffffffffffffffffff1681526020019081526020016000208190555080600073ffffffffffffffffffffffffffffffffffffffff163373ffffffffffffffffffffffffffffffffffffffff167fddf252ad1be2c89b69c2b068fc378daa952ba7f163c4a11628f55a4df523b3ef60405160405180910390a450565b600061143e610e05565b8210151561144b57600080fd5b600c8281548110151561145a57fe5b90600052602060002001549050919050565b600b8181548110151561147b57fe5b90600052602060002001600091509050806000018054600181600116156101000203166002900480601f0160208091040260200160405190810160405280929190818152602001828054600181600116156101000203166002900480156115235780601f106114f857610100808354040283529160200191611523565b820191906000526020600020905b81548152906001019060200180831161150657829003601f168201915b5050505050905081565b6000806004600084815260200190815260200160002060009054906101000a900473ffffffffffffffffffffffffffffffffffffffff169050600073ffffffffffffffffffffffffffffffffffffffff168173ffffffffffffffffffffffffffffffffffffffff161415151561160b576040517f08c379a00000000000000000000000000000000000000000000000000000000081526004018080602001828103825260108152602001807f546f6b656e20697320696e76616c69640000000000000000000000000000000081525060200191505060405180910390fd5b80915050919050565b600c8181548110151561162357fe5b906000526020600020016000915090505481565b60008073ffffffffffffffffffffffffffffffffffffffff168273ffffffffffffffffffffffffffffffffffffffff161415151561167457600080fd5b600560008373ffffffffffffffffffffffffffffffffffffffff1673ffffffffffffffffffffffffffffffffffffffff168152602001908152602001600020549050919050565b600260009054906101000a900473ffffffffffffffffffffffffffffffffffffffff1681565b606060018054600181600116156101000203166002900480601f0160208091040260200160405190810160405280929190818152602001828054600181600116156101000203166002900480156117795780601f1061174e57610100808354040283529160200191611779565b820191906000526020600020905b81548152906001019060200180831161175c57829003601f168201915b5050505050905090565b80600760003373ffffffffffffffffffffffffffffffffffffffff1673ffffffffffffffffffffffffffffffffffffffff16815260200190815260200160002060008473ffffffffffffffffffffffffffffffffffffffff1673ffffffffffffffffffffffffffffffffffffffff16815260200190815260200160002060006101000a81548160ff0219169083151502179055508173ffffffffffffffffffffffffffffffffffffffff163373ffffffffffffffffffffffffffffffffffffffff167f17307eab39ab6107e8899845ad3d59bd9653f200f220920489ca2b5937696c3183604051808215151515815260200191505060405180910390a35050565b6000600a80549050905090565b6060816118b0600d600085815260200190815260200160002054611434565b141515611925576040517f08c379a00000000000000000000000000000000000000000000000000000000081526004018080602001828103825260148152602001807f54686520746f6b656e20697320696e76616c696400000000000000000000000081525060200191505060405180910390fd5b600960008381526020019081526020016000208054600181600116156101000203166002900480601f0160208091040260200160405190810160405280929190818152602001828054600181600116156101000203166002900480156119cc5780601f106119a1576101008083540402835291602001916119cc565b820191906000526020600020905b8154815290600101906020018083116119af57829003601f168201915b50505050509050919050565b600060606000600a848154811015156119ed57fe5b906000526020600020906003020160000154600a85815481101515611a0e57fe5b9060005260206000209060030201600101600a86815481101515611a2e57fe5b906000526020600020906003020160020160009054906101000a900473ffffffffffffffffffffffffffffffffffffffff16818054600181600116156101000203166002900480601f016020809104026020016040519081016040528092919081815260200182805460018160011615610100020316600290048015611af55780601f10611aca57610100808354040283529160200191611af5565b820191906000526020600020905b815481529060010190602001808311611ad857829003601f168201915b505050505091509250925092509193909250565b60606040805190810160405280601d81526020017f68747470733a2f2f676174657761792e697066732e696f2f697066732f000000815250905090565b611b4e6124c4565b60206040519081016040528084848080601f016020809104026020016040519081016040528093929190818152602001838380828437600081840152601f19601f82011690508083019250505050505050815250905060006001600b839080600181540180825580915050906001820390600052602060002001600090919290919091506000820151816000019080519060200190611bee9291906124d8565b505050039050336004600083815260200190815260200160002060006101000a81548173ffffffffffffffffffffffffffffffffffffffff021916908373ffffffffffffffffffffffffffffffffffffffff160217905550611c996001600560003373ffffffffffffffffffffffffffffffffffffffff1673ffffffffffffffffffffffffffffffffffffffff16815260200190815260200160002054611f8490919063ffffffff16565b600560003373ffffffffffffffffffffffffffffffffffffffff1673ffffffffffffffffffffffffffffffffffffffff16815260200190815260200160002081905550600a60606040519081016040528083815260200186868080601f016020809104026020016040519081016040528093929190818152602001838380828437600081840152601f19601f8201169050808301925050505050505081526020013373ffffffffffffffffffffffffffffffffffffffff1681525090806001815401808255809150509060018203906000526020600020906003020160009091929091909150600082015181600001556020820151816001019080519060200190611da59291906124d8565b5060408201518160020160006101000a81548173ffffffffffffffffffffffffffffffffffffffff021916908373ffffffffffffffffffffffffffffffffffffffff160217905550505050611e45611dfb611b09565b85858080601f016020809104026020016040519081016040528093929190818152602001838380828437600081840152601f19601f82011690508083019250505050505050611fa5565b600960008381526020019081526020016000209080519060200190611e6b929190612558565b50803373ffffffffffffffffffffffffffffffffffffffff16600073ffffffffffffffffffffffffffffffffffffffff167fddf252ad1be2c89b69c2b068fc378daa952ba7f163c4a11628f55a4df523b3ef60405160405180910390a450505050565b6000600760008473ffffffffffffffffffffffffffffffffffffffff1673ffffffffffffffffffffffffffffffffffffffff16815260200190815260200160002060008373ffffffffffffffffffffffffffffffffffffffff1673ffffffffffffffffffffffffffffffffffffffff16815260200190815260200160002060009054906101000a900460ff16905092915050565b6000828211151515611f7357600080fd5b600082840390508091505092915050565b6000808284019050838110151515611f9b57600080fd5b8091505092915050565b6060611fe48383602060405190810160405280600081525060206040519081016040528060008152506020604051908101604052806000815250611fec565b905092915050565b6060808690506060869050606086905060608690506060869050606081518351855187518951010101016040519080825280601f01601f1916602001820160405280156120485781602001600182028038833980820191505090505b5090506060819050600080905060008090505b885181101561210e57888181518110151561207257fe5b9060200101517f010000000000000000000000000000000000000000000000000000000000000090047f01000000000000000000000000000000000000000000000000000000000000000283838060010194508151811015156120d157fe5b9060200101907effffffffffffffffffffffffffffffffffffffffffffffffffffffffffffff1916908160001a905350808060010191505061205b565b5060008090505b87518110156121c857878181518110151561212c57fe5b9060200101517f010000000000000000000000000000000000000000000000000000000000000090047f010000000000000000000000000000000000000000000000000000000000000002838380600101945081518110151561218b57fe5b9060200101907effffffffffffffffffffffffffffffffffffffffffffffffffffffffffffff1916908160001a9053508080600101915050612115565b5060008090505b86518110156122825786818151811015156121e657fe5b9060200101517f010000000000000000000000000000000000000000000000000000000000000090047f010000000000000000000000000000000000000000000000000000000000000002838380600101945081518110151561224557fe5b9060200101907effffffffffffffffffffffffffffffffffffffffffffffffffffffffffffff1916908160001a90535080806001019150506121cf565b5060008090505b855181101561233c5785818151811015156122a057fe5b9060200101517f010000000000000000000000000000000000000000000000000000000000000090047f01000000000000000000000000000000000000000000000000000000000000000283838060010194508151811015156122ff57fe5b9060200101907effffffffffffffffffffffffffffffffffffffffffffffffffffffffffffff1916908160001a9053508080600101915050612289565b5060008090505b84518110156123f657848181518110151561235a57fe5b9060200101517f010000000000000000000000000000000000000000000000000000000000000090047f01000000000000000000000000000000000000000000000000000000000000000283838060010194508151811015156123b957fe5b9060200101907effffffffffffffffffffffffffffffffffffffffffffffffffffffffffffff1916908160001a9053508080600101915050612343565b50819850505050505050505095945050505050565b8154818355818111156124385760030281600302836000526020600020918201910161243791906125d8565b5b505050565b828054600181600116156101000203166002900490600052602060002090601f016020900481019282601f1061247657805485556124b3565b828001600101855582156124b357600052602060002091601f016020900482015b828111156124b2578254825591600101919060010190612497565b5b5090506124c09190612636565b5090565b602060405190810160405280606081525090565b828054600181600116156101000203166002900490600052602060002090601f016020900481019282601f1061251957805160ff1916838001178555612547565b82800160010185558215612547579182015b8281111561254657825182559160200191906001019061252b565b5b5090506125549190612636565b5090565b828054600181600116156101000203166002900490600052602060002090601f016020900481019282601f1061259957805160ff19168380011785556125c7565b828001600101855582156125c7579182015b828111156125c65782518255916020019190600101906125ab565b5b5090506125d49190612636565b5090565b61263391905b8082111561262f576000808201600090556001820160006125ff919061265b565b6002820160006101000a81549073ffffffffffffffffffffffffffffffffffffffff0219169055506003016125de565b5090565b90565b61265891905b8082111561265457600081600090555060010161263c565b5090565b90565b50805460018160011615610100020316600290046000825580601f1061268157506126a0565b601f01602090049060005260206000209081019061269f9190612636565b5b5056fea165627a7a72305820cbb0c632d4ad3791a237db95f8c3c1d8f72c46be9bb316d955f698ecf2e9f1130029",
  "source": "pragma solidity ^0.5.0;\r\n\r\nimport \"./IERC721.sol\";\r\nimport \"./ERC165.sol\";\r\nimport \"./SafeMath.sol\";\r\n// import \"./Address.sol\";\r\nimport \"./Strings.sol\";\r\n\r\ncontract U1LTOKEN is IERC721, ERC165 {\r\n    using SafeMath for uint256;\r\n    // using Address for address;\r\n\r\n    string private _name;\r\n    string private _symbol;\r\n\r\n\r\n    address payable public owner = msg.sender;\r\n    mapping(bytes4 => bool) supportedInterfaces;\r\n    mapping(uint256 => address) tokenOwners;\r\n    mapping(address => uint256) balances;\r\n    mapping(uint256 => address) allowance;\r\n    mapping(address => mapping(address => bool)) operators;\r\n    mapping(uint256 => address) allbidcalls;\r\n\r\n    // NFT   . \r\n    mapping(uint256 => string) tokenURIs;\r\n\r\n    struct asset {\r\n        string ipfsHash;\r\n    }\r\n     //struct \r\n    struct allNFT{\r\n        uint256 tokenId; // \r\n        string ipfsHash; //    \r\n        address tokenOwner; //    \r\n    }\r\n\r\n    //struct =>  \r\n    allNFT[] allNFTs;\r\n    asset[] public allTokens;//   \r\n\r\n\r\n    //for enumeration\r\n    uint256[] public allValidTokenIds; //same as allTokens but does't have invalid tokens\r\n    mapping(uint256 => uint256) private allValidTokenIndex;\r\n\r\n    modifier onlyOwner() {\r\n        require(msg.sender == owner, \"Only owner can call this function.\");\r\n        _;\r\n    }\r\n\r\n    // constructor() public {\r\n    //     owner = msg.sender;\r\n    //     supportedInterfaces[0x01ffc9a7] = true; //ERC165\r\n    //     supportedInterfaces[0x80ac58cd] = true; //ERC721\r\n    //     supportedInterfaces[0x5b5e139f] = true; //ERC721Metadata\r\n    // }\r\n    \r\n    constructor() public{\r\n        _name = \"U1L TOKEN\";\r\n        _symbol = \"U1L\";\r\n        owner = msg.sender;\r\n        supportedInterfaces[0x01ffc9a7] = true; //ERC165\r\n        supportedInterfaces[0x80ac58cd] = true; //ERC721\r\n        supportedInterfaces[0x5b5e139f] = true; //ERC721Metadata\r\n    }\r\n\r\n    //ERC721Metadata\r\n    // function name() external pure returns (string memory) {\r\n    function name() public view  returns (string memory) {\r\n        return _name;\r\n    }\r\n    //ERC721Metadata\r\n    // function symbol() external pure returns (string memory) {\r\n    function symbol() public view  returns  (string memory) {\r\n        // return \"U1L\";\r\n        return _symbol;\r\n    }\r\n\r\n\r\n    function supportsInterface(bytes4 interfaceID)\r\n        external\r\n        view\r\n        returns (bool)\r\n    {\r\n        return supportedInterfaces[interfaceID];\r\n    }\r\n\r\n    function balanceOf(address _owner) external view returns (uint256) {\r\n        require(_owner != address(0));\r\n        return balances[_owner];\r\n    }\r\n\r\n    function ownerOf(uint256 _tokenId) public view returns (address) {\r\n        address addr_owner = tokenOwners[_tokenId];\r\n        require(addr_owner != address(0), \"Token is invalid\");\r\n        return addr_owner;\r\n    }\r\n\r\n        /////////////////////////////////////////////////////////////\r\n     function removeInvalidToken(uint256 tokenIdToRemove) private {\r\n        uint256 lastIndex = allValidTokenIds.length.sub(1);\r\n        uint256 removeIndex = allValidTokenIndex[tokenIdToRemove];\r\n\r\n        uint256 lastTokenId = allValidTokenIds[lastIndex];\r\n        //swap\r\n        allValidTokenIds[removeIndex] = lastTokenId;\r\n        allValidTokenIndex[lastTokenId] = removeIndex;\r\n        //delete\r\n        //Arrays have a length member to hold their number of elements.\r\n        //Dynamic arrays can be resized in storage (not in memory) by changing the .length member.\r\n        allValidTokenIds.length = allValidTokenIds.length.sub(1);\r\n        //allValidTokenIndex is private so can't access invalid token by index programmatically\r\n        allValidTokenIndex[tokenIdToRemove] = 0;\r\n    }\r\n\r\n\r\n    //  function safeTransferFrom(\r\n    //     address _from,\r\n    //     address  _to,\r\n    //     uint256 _tokenId,\r\n    //     bytes memory data\r\n    // ) public payable {\r\n    //     transferFrom(_from, _to, _tokenId);\r\n    //     //check if _to is CA\r\n    //     if (_to.isContract()) {\r\n    //         bytes4 result = ERC721TokenReceiver(_to).onERC721Received(\r\n    //             msg.sender,\r\n    //             _from,\r\n    //             _tokenId,\r\n    //             data\r\n    //         );\r\n\r\n    //         require(\r\n    //             result ==\r\n    //                 bytes4(\r\n    //                     keccak256(\r\n    //                         \"onERC721Received(address,address,uint256,bytes)\"\r\n    //                     )\r\n    //                 ),\r\n    //             \"receipt of token is NOT completed\"\r\n    //         );\r\n    //     }\r\n    // }\r\n\r\n    // function safeTransferFrom(\r\n    //     address _from,\r\n    //     address _to,\r\n    //     uint256 _tokenId\r\n    // ) public payable {\r\n    //     safeTransferFrom(_from, _to, _tokenId, \"\");\r\n    // }\r\n\r\n\r\n    //////////////////////////////////////////////////////////////////\r\n\r\n    //  . \r\n    // function bidArray () {\r\n        \r\n    // }\r\n\r\n    //     .\r\n    // function transferAuction (address _from, address _to, uint256 _tokenId) public payable {\r\n    //     if(block.timestamp <= start + daysAfter * 1days){\r\n\r\n    //     }\r\n    // }\r\n    /////////////////////////////////////////\r\n\r\n   \r\n\r\n    function approve(address _approved, uint256 _tokenId) external payable {\r\n        address addr_owner = ownerOf(_tokenId);\r\n        bool isOp = operators[addr_owner][msg.sender];\r\n        require(addr_owner == msg.sender || isOp, \"Not approved by owner\");\r\n        allowance[_tokenId] = _approved;\r\n        emit Approval(addr_owner, _approved, _tokenId);\r\n    }\r\n\r\n     \r\n\r\n\r\n    function setApprovalForAll(address _operator, bool _approved) external {\r\n        operators[msg.sender][_operator] = _approved;\r\n        emit ApprovalForAll(msg.sender, _operator, _approved);\r\n    }\r\n\r\n    function getApproved(uint256 _tokenId) external view returns (address) {\r\n        return allowance[_tokenId];\r\n    }\r\n\r\n    function isApprovedForAll(address _owner, address _operator)\r\n        external\r\n        view\r\n        returns (bool)\r\n    {\r\n        return operators[_owner][_operator];\r\n    }\r\n\r\n       \r\n\r\n    // NFT     \r\n    function getAllNFTs(uint _number) public view returns (uint256, string memory, address){\r\n        return (allNFTs[_number].tokenId, allNFTs[_number].ipfsHash, allNFTs[_number].tokenOwner);\r\n    }\r\n\r\n    //NFT \r\n    function getLength() public view returns (uint256) {\r\n        return allNFTs.length;\r\n    }\r\n\r\n    // \r\n    function mint(string calldata ipfsHash) external {\r\n        asset memory newAsset = asset(ipfsHash);\r\n        uint256 tokenId = allTokens.push(newAsset) - 1;\r\n        tokenOwners[tokenId] = msg.sender;\r\n        balances[msg.sender] = balances[msg.sender].add(1);\r\n        allNFTs.push(allNFT(tokenId, ipfsHash, msg.sender ));\r\n        tokenURIs[tokenId] = Strings.strConcat(baseTokenURI(), ipfsHash);\r\n        emit Transfer(address(0), msg.sender, tokenId);\r\n    }\r\n\r\n    // function auction(){\r\n    //     if(block.timestamp>=1630401003){\r\n    //         return \"success\";\r\n    //     }\r\n    // }\r\n\r\n \r\n\r\n  \r\n\r\n     //////////////////////////////////////////////////////////////////\r\n    function transferFrom( address payable  _from, address   _to, uint256 _tokenId ) public payable {\r\n        tokenOwners[_tokenId] = _to;\r\n        balances[_from] = balances[_from].sub(1);\r\n        balances[_to] = balances[_to].add(1);\r\n        _from.transfer(msg.value);\r\n        emit Transfer(_from, _to, _tokenId);\r\n    }\r\n    \r\n\r\n    /// NFT   ////////////////\r\n    function burn(uint256 _tokenId) external {\r\n        for(uint i=0;i<allNFTs.length;i++){\r\n            if(allNFTs[i].tokenId ==_tokenId){\r\n                if(allNFTs.length==1){\r\n                    allNFTs.length--;\r\n                }\r\n                else if((i+1)==allNFTs.length){\r\n                    allNFTs.length--;\r\n                }\r\n                else{\r\n                    allNFTs[i]=allNFTs[i+1];\r\n                allNFTs.length--;\r\n                }\r\n            }\r\n        }\r\n        tokenOwners[_tokenId] = address(0);\r\n        balances[msg.sender] = balances[msg.sender].sub(1);\r\n        emit Transfer(msg.sender, address(0), _tokenId);\r\n    }\r\n    /////////////////////////////////////////////////////////////\r\n\r\n\r\n\r\n    function baseTokenURI() public pure returns (string memory) {\r\n        return \"https://gateway.ipfs.io/ipfs/\";\r\n    }\r\n\r\n    //ERC721Enumerable\r\n    function totalSupply() public view returns (uint256) {\r\n        return allValidTokenIds.length;\r\n    }\r\n\r\n    //ERC721Enumerable\r\n    function tokenByIndex(uint256 index) public view returns (uint256) {\r\n        require(index < totalSupply());\r\n        return allValidTokenIds[index];\r\n    }\r\n\r\n  \r\n\r\n    //ERC721Metadata\r\n    function tokenURI(uint256 _tokenId) external view returns (string memory) {\r\n        require(\r\n            tokenByIndex(allValidTokenIndex[_tokenId]) == _tokenId,\r\n            \"The token is invalid\"\r\n        );\r\n        return tokenURIs[_tokenId];\r\n    }\r\n\r\n    function kill() external onlyOwner {\r\n        selfdestruct(owner);\r\n    }\r\n}\r\n\r\ncontract ERC721TokenReceiver {\r\n    function onERC721Received(\r\n        address _operator,\r\n        address _from,\r\n        uint256 _tokenId,\r\n        bytes memory _data\r\n    ) public returns (bytes4);\r\n}",
  "sourcePath": "/home/byeonggoon/work/DAPP/LASTDAY/contracts/U1LTOKEN.sol",
  "compiler": {
    "name": "solc",
    "version": "0.5.0+commit.1d4f565a.Emscripten.clang"
  },
  "schemaVersion": "3.4.2",
  "updatedAt": "2021-09-07T00:47:12.659Z",
  "networkType": "ethereum",
  "devdoc": {
    "methods": {}
  },
  "userdoc": {
    "methods": {
      "approve(address,uint256)": {
        "notice": "//////////////////////////////////////"
      },
      "baseTokenURI()": {
        "notice": "//////////////////////////////////////////////////////////"
      },
      "burn(uint256)": {
        "notice": " NFT   ////////////////"
      },
      "transferFrom(address,address,uint256)": {
        "notice": "///////////////////////////////////////////////////////////////"
      }
    }
  }
}